:020000040800F2
:10000000C806002031020008C9050008C105000823
:10001000C5050008DF040008751200080000000094
:100020000000000000000000000000003D0C00087F
:10003000E30400080000000051060008050D000858
:100040004B0200084B0200084B0200084B0200085C
:100050004B0200084B0200084B0200084B0200084C
:100060004B0200084B0200084B0200084B0200083C
:100070004B0200084B0200084B0200084B0200082C
:100080004B0200084B0200084B0200084B0200081C
:100090004B0200084B0200084B0200084B0200080C
:1000A0004B0200084B0200084B0200084B020008FC
:1000B0004B0200084B020008000000004B02000841
:1000C0004B02000800000000000000004B02000886
:1000D000000000004B020008D90F00084B02000886
:1000E0004B0200084B020008000000000000000066
:1000F0000000000000000000000000000000000000
:1001000000000000000000000000000000000000EF
:1001100000000000000000004B020008A50E0008CF
:1001200000000000000000000000000000000000CF
:1001300000000000000000000000000000000000BF
:100140004B0200084B020008000000004B020008B0
:100150004B0200084B0200084B0200084B0200084B
:100160004B0200084B0200080000000000000000E5
:10017000000000000000000000000000000000007F
:10018000000000004B02000800F002F800F041F807
:100190000AA090E8000C82448344AAF10107DA45E2
:1001A00001D100F036F8AFF2090EBAE80F0013F0F3
:1001B000010F18BFFB1A43F0010318479414000005
:1001C000B4140000103A24BF78C878C1FAD8520796
:1001D00024BF30C830C144BF04680C6070470000C1
:1001E0000023002400250026103A28BF78C1FBD840
:1001F000520728BF30C148BF0B607047642900F028
:100200007F80002070471FB501F01CFA1FBD10B59C
:1002100010BD00F02AF91146FFF7F5FF01F02CF8A8
:1002200000F048F903B4FFF7F2FF03BC00F050F907
:100230000948804709480047FEE7FEE7FEE7FEE77A
:10024000FEE7FEE7FEE7FEE7FEE7FEE704480549B6
:10025000054A064B70470000210E0008890100087E
:10026000C8000020C8060020C8020020C8020020E4
:100270000FB41CB5074B06AA7B446946009005984D
:1002800000F0DBF80020694600F0EAF81CBC5DF8DD
:1002900014FB0000E50100002DE9F0410E46044684
:1002A000002020622046E168884730B3252805D029
:1002B000D4E901219047206A401CF2E7E16820461A
:1002C00000278847050018D0A5F14100192802D859
:1002D00020354FF400673246294620462760FFF755
:1002E0008DFF40B1012804D0F61D26F00706083620
:1002F000D8E7361DD6E72846DAE7206ABDE8F08160
:100300002DE9F0410646002410687529314616A5EE
:1003100010D0AFF30080002802DA404213A507E0B6
:1003200031688A0701D512A502E0490704D511A555
:10033000012401E0AFF3008000210A2206F1240726
:1003400009E0B0FBF2FCB0FBF2F302FB1C00303022
:1003500078541846491C0028F3D123462A463046D3
:10036000BDE8F04100F00BB8000000002D000000D7
:100370002B000000200000007047704770472DE9F7
:10038000F0470D4699469246044600F1240801685C
:10039000880604D5E06921F01001216000E0012009
:1003A000A84201DD471B00E00027A1697A1902EB92
:1003B0000900081AA0612078C00602D42046AFF3D5
:1003C0000080002608E0D4E901211AF806009047D1
:1003D000206A401C761C20624E45F4DB2078C00663
:1003E0000AD52046AFF3008006E0D4E90121302091
:1003F0009047206A401C2062381EA7F10107F4DCF8
:1004000007E0D4E9012118F805009047206A401C54
:100410002062281EA5F10105F3DC2046AFF3008021
:100420002078000602D50220BDE8F0870120FBE716
:1004300001694A1C02610878704700B58FB0CDE9A8
:1004400001310021059105497944CDE90310114698
:100450006846FFF721FF0FB000BD0000E5FFFFFF7A
:100460000A6802F8010B0A607047754600F02CF824
:10047000AE4605006946534620F00700854618B091
:1004800020B5FFF7E3FEBDE820404FF000064FF037
:1004900000074FF000084FF0000B21F00701AC46B9
:1004A000ACE8C009ACE8C009ACE8C009ACE8C009D8
:1004B0008D46704710B50446AFF300802046BDE876
:1004C0001040FFF7AFBE00000048704764000020F6
:1004D00001491820ABBEFEE726000200704700BFAE
:1004E000FEE77047F0B50A460021002400250023EE
:1004F00000BF3FE0012606FA01F4166806EA04058B
:10050000A54236D11679012E02D01679022E18D1C5
:1005100086684FEA410C032707FA0CF7BE43866052
:1005200056794F00BE4087683E4386608688012723
:100530008F40BE438680878896798E40B6B2374317
:10054000878006684FEA410C032707FA0CF7BE4381
:10055000066016794F00BE4007683E430660C368D8
:100560004F000326BE40B343D6794F00BE4033430D
:10057000C360491C1029BDD3F0BDF0B50023002491
:100580004D07ED0E02FA05F3CE1000F1200555F8E7
:1005900026504E07F70E0F26BE40B543CF1000F190
:1005A000200646F82750CE1000F1200555F82650B9
:1005B00045EA0304CE1000F1200545F82640F0BDC1
:1005C00000BFFEE700BFFEE77047000070B50021E6
:1005D00000230F22C47804B3154C246804F4E064AB
:1005E000C4F5E064210AC1F10403CA40447804FA66
:1005F00003F184781440214309010E4C0678A1557B
:10060000047804F01F050124AC4005786D11AD009D
:1006100005F1E025C5F8004109E0047804F01F0564
:100620000124AC40044D0678761145F8264070BD93
:100630000CED00E000E400E080E100E0024901434D
:10064000024A1160704700000000FA050CED00E05E
:100650007047000029B1064A52690243044B5A61AF
:1006600004E0034A52698243014B5A61704700001B
:100670000010024029B1064AD2690243044BDA61F4
:1006800004E0034AD2698243014BDA6170470000FB
:100690000010024029B1064A12690243044B1A6154
:1006A00004E0034A12698243014B1A61704700005B
:1006B0000010024029B1064AD2680243044BDA60B6
:1006C00004E0034AD2688243014BDA6070470000BD
:1006D000001002402DE9F043002200260027944636
:1006E0000025002100230024DFF83C85D8F8048091
:1006F00008F00C0222B1042A07D0082A30D109E000
:10070000DFF82885C0F800802FE0DFF82085C0F8EA
:1007100000802AE0DFF81085D8F8048008F470160D
:10072000DFF80485D8F8048008F480374FF0020819
:1007300008EB964627B9DFF8F88406FB08F10DE0D0
:10074000DFF8E484D8F82C8008F00F0808F1010CD9
:10075000DFF8D884B8FBFCF808FB06F1016004E080
:10076000DFF8C884C0F8008000BF00BFDFF8B8849D
:10077000D8F8048008F0F0021209DFF8B88418F8FD
:100780000240D0F8008028FA04F8C0F80480DFF8AE
:100790009884D8F8048008F4E062120ADFF89484A0
:1007A00018F80250D0F8048028FA05F8C0F808803C
:1007B000DFF87484D8F8048008F46052D20ADFF8B5
:1007C000748418F80230D0F8048028FA03F8C0F8CE
:1007D0000C80DFF85484D8F82C8008F4F8721209E1
:1007E00002F00F08DFF8509439F8185002F01008A2
:1007F000B8F1000F05D025B1B1FBF5F8C0F81080B5
:1008000003E0D0F80080C0F81080DFF81C84D8F82E
:100810002C8008F47852520A02F00F08DFF818947E
:1008200039F8185002F01008B8F1000F05D025B1C2
:10083000B1FBF5F8C0F8148003E0D0F80080C0F8F0
:100840001480DFF8E483D8F8308008F01008B8F19D
:10085000100F04D0DFF8D483C0F8188003E0D0F87C
:100860000080C0F81880DFF8C083D8F8308008F026
:100870002008B8F1200F04D0DFF8B083C0F81C8046
:1008800003E0D0F80080C0F81C80DFF89C83D8F823
:10089000308008F04008B8F1400F04D0DFF88C83B6
:1008A000C0F8208003E0D0F80080C0F82080DFF896
:1008B0007883D8F8308008F48078B8F5807F0AD142
:1008C000D0F80080884506D1A34204D14FEA410800
:1008D000C0F8248003E0D0F80C80C0F82480DFF852
:1008E0004883D8F8308008F48058B8F5805F0AD182
:1008F000D0F80080884506D1A34204D14FEA4108D0
:10090000C0F8288003E0D0F80C80C0F82880DFF819
:100910001883D8F8308008F40078B8F5007F0AD141
:10092000D0F80080884506D1A34204D14FEA41089F
:10093000C0F82C8003E0D0F80C80C0F82C80DFF8E1
:10094000E882D8F8308008F48068B8F5806F0AD162
:10095000D0F80080884506D1A34204D14FEA41086F
:10096000C0F84C8003E0D0F80C80C0F84C80DFF871
:10097000B882D8F8308008F40068B8F5006F0AD162
:10098000D0F80080884506D1A34204D14FEA41083F
:10099000C0F8508003E0D0F80C80C0F85080DFF839
:1009A0008882D8F8308008F40058B8F5005F0AD182
:1009B000D0F80080884506D1A34204D14FEA41080F
:1009C000C0F8548003E0D0F80C80C0F85080DFF805
:1009D0005882D8F8308008F40048B8F5004F0AD1A2
:1009E000D0F80080884506D1A34204D14FEA4108DF
:1009F000C0F8588003E0D0F80C80C0F85880DFF8C9
:100A00002882D8F8308008F00308B8F1000F04D12C
:100A1000D0F80880C0F8388028E0DFF80C82D8F8D9
:100A2000308008F00308B8F1010F04D1D0F800803D
:100A3000C0F838801AE0DFF8F081D8F8308008F08C
:100A40000308B8F1020F04D14FF40048C0F8388011
:100A50000CE0DFF8D481D8F8308008F00308B8F152
:100A6000030F03D1DFF8C481C0F83880DFF8B88104
:100A7000D8F8308008F44038B8F1000F04D1D0F82D
:100A80000880C0F83C8028E0DFF89C81D8F83080EE
:100A900008F44038B8F5803F04D1D0F80080C0F8A1
:100AA0003C801AE0DFF88081D8F8308008F44038C4
:100AB000B8F5003F04D14FF40048C0F83C800CE08A
:100AC000DFF86481D8F8308008F44038B8F5403F4A
:100AD00003D1DFF85881C0F83C80DFF84C81D8F8AA
:100AE000308008F44028B8F1000F04D1D0F8088015
:100AF000C0F8408028E0DFF83081D8F8308008F472
:100B00004028B8F5802F04D1D0F80080C0F840808C
:100B10001AE0DFF81481D8F8308008F44028B8F5DE
:100B2000002F04D14FF40048C0F840800CE0DFF8FB
:100B3000F880D8F8308008F44028B8F5402F03D169
:100B4000DFF8E880C0F84080DFF8DC80D8F830803B
:100B500008F44018B8F1000F04D1D0F80880C0F8AC
:100B6000448028E0DFF8C080D8F8308008F44018CE
:100B7000B8F5801F04D1D0F80080C0F844801AE096
:100B8000DFF8A480D8F8308008F44018B8F5001FCA
:100B900004D14FF40048C0F844800CE0DFF88880AE
:100BA000D8F8308008F44018B8F5401F03D1DFF8BA
:100BB0007C80C0F84480DFF87080D8F8308008F47A
:100BC0004008B8F1000F04D1D0F80880C0F8488080
:100BD00028E0DFF85480D8F8308008F44008B8F5F1
:100BE000800F04D1D0F80080C0F848801AE0DFF808
:100BF0003880D8F8308008F44008B8F5000F04D1E8
:100C00004FF40048C0F848800CE0DFF81C80D8F8AA
:100C1000308008F44008B8F5400F03D1DFF80C80AD
:100C2000C0F84880BDE8F0830010024000127A004E
:100C300000093D0000000020100000207047000067
:100C40000CB50020019000902C48006840F48030E2
:100C50002A49086000BF2948006800F4003000906D
:100C60000198401C0190009818B90198B0F5A04F68
:100C7000F1D12248006800F4003010B1012000904A
:100C800001E0002000900098012836D112201C4974
:100C900008601A484068194948600846406848603A
:100CA0000846406840F4806048600846406820F488
:100CB0007C1048600846406840F4E81048600846E8
:100CC000006840F08070086000BF0C48006800F0C9
:100CD00000700028F9D00948406820F00300074957
:100CE00048600846406840F00200486000BF034882
:100CF000406800F00C000828F9D10CBD001002403B
:100D0000002002400448006820B103480068401EEB
:100D100001490860704700004400002070B500F0F1
:100D20002FF813480068134AB0FBF2F1481EB0F1E7
:100D3000807F00D31BE0481E4FF0E0225061501727
:100D40000F22002807DA13071D0E0B4B00F00F04CB
:100D5000241F1D5503E013071C0E084B1C5400BF35
:100D600000204FF0E02290610720106100BF70BDAD
:100D700030000020A086010018ED00E000E400E053
:100D800030B50021002000220023204C646804F0CC
:100D90000C0121B1042906D0082925D107E01C4CFB
:100DA0001C4D2C6024E01A4C1A4D2C6020E0174C8E
:100DB000646804F47010154C646804F480320224F2
:100DC00004EB904022B9144C4443124D2C600AE0CD
:100DD0000E4CE46A04F00F04631C0D4CB4FBF3F4F6
:100DE00044430C4D2C6003E0094C0A4D2C6000BFBD
:100DF00000BF064C6468C4F30314084D295D054C1C
:100E00002468CC40034D2C6030BD0000001002402F
:100E100000127A003000002000093D00340000205C
:100E200010B51B48006840F4700019490860194863
:100E3000006840F0010017490860084640681649FC
:100E400008401449486008460068144908401149A0
:100E500008600846006820F4802008600846406862
:100E600020F4FE0048600846C06A20F00F00C86207
:100E70000846006B0A49084006490863002088605C
:100E8000FFF7DEFE4FF0006001498039086010BDB9
:100E900088ED00E0001002400CC07FF8FFFFF6FE76
:100EA000CCFC00FF10B50121064800F013F840B15A
:100EB0000121044800F00AF803480088401C024958
:100EC000088010BD0014004060000020CA4392B2A8
:100ED0000261704730B502460020002300241569E6
:100EE00005EA0103D56805EA010413B10CB101203C
:100EF00000E0002030BD000000B589B001214804A9
:100F0000FFF7B8FB01214804FFF7A4FB042007907A
:100F100002208DF8200007A94FF09040FFF7E2FA79
:100F20000820079002208DF8200007A94FF090407C
:100F3000FFF7D8FA072202214FF09040FFF71DFB80
:100F4000072203214FF09040FFF717FB164800F0EF
:100F50007DF84FF416500190002002900390049009
:100F600006900C20059001A90F4800F009F9012214
:100F70000E490D4800F0E6F84FF4C060FFF75EFB45
:100F800026208DF8000000208DF801008DF8020069
:100F900001208DF803006846FFF718FB0121024885
:100FA00000F049F809B000BD00440040050105000B
:100FB00070B505460C460BE02178284600F056F93E
:100FC00000BF8021284600F08FF80028F9D0641C6B
:100FD00020780028F0D170BD10B50D490D4800F003
:100FE0008CF898B10A490B4800F01CF809482430E5
:100FF000008809490870084600780849084A12889C
:10100000885407480088401C0549088010BD00002E
:101010000501050000440040500000204800002069
:101020005A00002010B5002200230A0C012404FA03
:1010300002F3036210BD21B1026842F001020260B6
:1010400003E0026822F001020260704710B5044616
:101050002048844209D101218803FFF72BFB00219E
:101060004FF48040FFF726FB32E01B48844209D151
:1010700001214804FFF70EFB00214FF40030FFF779
:1010800009FB25E01548844209D101218804FFF7B6
:1010900001FB00214FF48020FFF7FCFA18E0104814
:1010A000844209D10121C804FFF7F4FA00214FF46A
:1010B0000020FFF7EFFA0BE00A48844208D1012133
:1010C0000805FFF7E7FA00214FF48010FFF7E2FA76
:1010D00010BD0000003801400044004000480040BE
:1010E000004C00400050004002460020D3690B40F5
:1010F0000BB1012000E00020704770B502460B469E
:101100000024002100250020C3F30725D9B20126C1
:1011100006FA01F1012D02D11668314006E0022DD8
:1011200002D15668314001E0966831401C0C01261E
:1011300006FA04F4D669344011B10CB1012000E084
:10114000002070BDF0B503460024002600250020D5
:101150001846C1F30724CEB2012707FA06F5022C80
:1011600001D1001D02E0032C00D108301AB107683C
:101170002F43076002E00768AF430760F0BD00003F
:101180002DE9F04198B004460D460027B8460026E8
:10119000206820F001002060666826F44056A868A8
:1011A00006436660266841F20C608643E968686819
:1011B00008432969084306432660A66826F440765A
:1011C00068690643A66001A8FFF784FA23488442B1
:1011D00002D1DDF83C8013E02148844202D1DDF8E1
:1011E00040800DE01F48844202D1DDF8448007E0D2
:1011F0001D48844202D1DDF8488001E0DDF84C80D2
:10120000206800F4004060B14FEA48002968B0FB54
:10121000F1F74FEA48002968B0FBF1F201FB120632
:1012200007E02868B8FBF0F72868B8FBF0F100FB8E
:1012300011862868B6EB500F00D37F1C206800F49D
:10124000004038B1C7F342064FF6F07107EA0100DB
:1012500040EA0607A78118B0BDE8F08100380140D8
:101260000044004000480040004C0040C1F3080228
:101270000285704700BFFEE70024FFF781FDFFF7FE
:101280004DFDFFF739FE54E1AA48008808282ED109
:10129000A9480078AA281ED1A748C07955281AD194
:1012A000A5484078A44989780844FF2813D1A2486A
:1012B000C078A14909790844FF280CD19E4840799B
:1012C0009D4989790844FF2805D19CA19F48FFF7D3
:1012D0006FFE01240BE09EA19C48FFF769FE0024ED
:1012E00094480088082802D1002092490880012CE7
:1012F000C9D19148C0783C2827DC8F48C0780028A5
:1013000023DD8D48C27896A12846FEF7B1FF294615
:101310008E48FFF74DFE00209649086009E0002046
:101320008549944A1268885492480068401C914943
:101330000860904800680828F1D37E480088082893
:1013400003D100207B49088000247B48C078DC283A
:101350001DD189A17D48FFF72BFE0020854908603B
:1013600009E000207449834A126888548148006863
:10137000401C804908607F4800680828F1D36D4808
:101380000088082803D100206A49088000246A48A0
:10139000C078CF2827D17FA16C48FFF709FE6648A7
:1013A000427984A12846FEF763FF29466748FFF784
:1013B000FFFD00206F49086009E000215E486D4A8A
:1013C000126881546B480068401C6A49086069488B
:1013D00000680828F1D357480088082803D1002066
:1013E0005449088000245448C078D12827D176A1D8
:1013F0005648FFF7DDFD504842797AA12846FEF7AE
:1014000037FF29465148FFF7D3FD002059490860AE
:1014100009E000214848574A12688154554800683D
:10142000401C54490860534800680828F1D34148DB
:101430000088082803D100203E49088000243E4847
:10144000C078D22827D16BA14048FFF7B1FD3A48B8
:10145000427964A12846FEF70BFF29463B48FFF777
:10146000A7FD00204349086009E000213248414AB5
:10147000126881543F480068401C3E4908603D485E
:1014800000680828F1D32B480088082803D10020E1
:101490002849088000242848C078D32827D15BA198
:1014A0002A48FFF785FD244842794EA12846FEF7D9
:1014B000DFFE29462548FFF77BFD00202D49086007
:1014C00009E000211C482B4A126881542948006811
:1014D000401C28490860274800680828F1D31548AF
:1014E0000088082803D100201249088000241248EF
:1014F000C078DD281DD14DA11448FFF759FD00200B
:101500001C49086009E000210B481A4A12688154FE
:1015100018480068401C17490860164800680828E9
:10152000F1D304480088082803D10020014908802D
:101530000024A9E65A000020480000200A726967CA
:10154000687420666F726D0A00000000004400405D
:101550000A77726F6E6720666F726D0A0000000076
:10156000736C6F7420706F736974696F6E3A2025A5
:1015700064200A005C0000202074656D7065726153
:101580007475726520636F64652072696768742082
:101590000A000000207365742074656D70657261C7
:1015A0007475726520636F64652072696768742062
:1015B0000A00000074656D70657261747572653A39
:1015C000202564200A0000002074696D6520646590
:1015D00066726F737420636F6465207269676874E4
:1015E000200A000074696D653A202564206D696EDB
:1015F0000A0000002074696D6520776F726B2063AC
:101600006F6465207269676874200A002074696DD0
:101610006520636F6F6C6572207265737420636FF1
:101620006465207269676874200A0000206C656434
:101630002073657420636F64652072696768742025
:101640000A0000004FF04070E1EE100A7047000001
:10165000701600080000002064000000C4010008AB
:10166000D41600086400002064060000E0010008B1
:101670000000000001020304010203040607080938
:10168000010002000400060008000A000C0010001F
:101690002000400080000001000000000000000069
:1016A00000A24A0400000000000000000102030440
:1016B000060708090000000000000000000000000C
:1016C000000000000000000000000000000000001A
:0416D0000000000016
:040000050800018965
:00000001FF
