:020000040800F2
:10000000A806002041020008C3150008BB1500081F
:10001000BF150008AF140008D51F0008000000003D
:10002000000000000000000000000000A11B00080C
:10003000B314000800000000C5150008691C000882
:100040005B0200085B0200085B0200085B0200081C
:100050005B0200085B0200085B0200085B0200080C
:100060005B0200085B0200085B0200085B020008FC
:100070005B0200085B0200085B0200085B020008EC
:100080005B0200085B0200085B0200085B020008DC
:100090005B0200085B0200085B0200085B020008CC
:1000A0005B0200085B0200085B0200085B020008BC
:1000B0005B0200085B020008000000005B02000811
:1000C0005B02000800000000000000005B02000866
:1000D000000000005B0200085B0200085B020008F1
:1000E0005B0200085B020008000000000000000046
:1000F0000000000000000000000000000000000000
:1001000000000000000000000000000000000000EF
:1001100000000000000000005B0200085B02000815
:1001200000000000000000000000000000000000CF
:1001300000000000000000000000000000000000BF
:100140005B0200085B020008000000005B02000880
:100150005B0200085B0200085B0200085B0200080B
:100160005B0200085B0200080000000000000000C5
:10017000000000000000000000000000000000007F
:10018000000000005B02000800F002F800F049F8EF
:100190000AA090E8000C82448344AAF10107DA45E2
:1001A00001D100F03EF8AFF2090EBAE80F0013F0EB
:1001B000010F18BFFB1A43F001031847103D000060
:1001C000303D0000103A24BF78C878C1FAD85207F1
:1001D00024BF30C830C144BF04680C6070470000C1
:1001E0000023002400250026103A28BF78C1FBD840
:1001F000520728BF30C148BF0B607047662903F023
:100200005685002070471FB503F047FD00F0BCFA8B
:1002100004000020002102F00BFFE0601FBD10B5BC
:1002200010BD00F0B5FB1146FFF7EDFF02F0F0FD49
:1002300000F0D3FB03B4FFF7F2FF03BC00F016FCA1
:100240000948804709480047FEE7FEE7FEE7FEE76A
:10025000FEE7FEE7FEE7FEE7FEE7FEE704480549A6
:10026000054A064B70470000851D000889010008FB
:10027000A8000020A8060020A8020020A802002054
:100280000FB41CB5074B06AA7B446946009005983D
:1002900000F061FA0020694600F070FA1CBC5DF8BD
:1002A00014FB0000F10400002DE9F0410E46044665
:1002B000002020622046E168884730B3252805D019
:1002C000D4E901219047206A401CF2E7E16820460A
:1002D00000278847050018D0A5F14100192802D849
:1002E00020354FF400673246294620462760FFF745
:1002F00085FF40B1012804D0F61D26F00706083618
:10030000D8E7361DD6E72846DAE7206ABDE8F0814F
:1003100070477047704710B500F03AFA006810BD9A
:1003200010B5044600F034FA046010BD70472DE9A2
:10033000FF4F0C461E464FF0FF378BB0D2E900014D
:10034000DDF860800A908A46C1F30A5505B93D463A
:10035000002108464FF00000BAF1000F00F4400001
:1003600005DA00EB80004FF4400101EA50004FEA4B
:100370009059B9F1010F00DDB9460A9850EA4A00D8
:100380000ED044F61050A5F2FF3545432F14B8F1B6
:10039000000F1ED07542291E1EDDC9F100021CE0AF
:1003A000B8F1010F4FF0000001D0302103E0F2431B
:1003B00005E02154401CB042FBDB30460022002106
:1003C00021540B99C1F80880C1E900200FB0BDE8A5
:1003D000F08FBD1B6D1CDEE74A4600DA694206A8B5
:1003E00000F060FA06AB93E8070003AB83E8070070
:1003F00050460A9900F041FB8DE80700A0F5005037
:100400001F3800900398002D0ADD42F21F014A4672
:100410000844002303A90390684600F0AAFD09E000
:10042000A0F500504A461F38002303A903906846F0
:1004300000F0B4FD8DE807000004000C03D04FF07D
:10044000FF30410800E01046B8F1000F03D0002251
:10045000009215461EE0751E05D400F09DF930325D
:1004600062556D1EF9D5B3460122084302D0002221
:100470007F1C04E02078302801D100227F1E002A52
:10048000099784D01DE0112D07DA00F085F930328C
:1004900062556D1C50EA0102F5D1084302D0009864
:1004A000C8B10EE00021681E05E0235C625C635465
:1004B0002254401E491C8142F7DBAB46A81B401E5C
:1004C0000990002004F80B000B98099AC0F80880E6
:1004D000C0E9002B7AE711264FF0000857E72DE915
:1004E000F04F88460446D21D22F0070191B0D1E9B1
:1004F0000001CDE90A0101F06FFD02460B98C00F23
:1005000001D02D2007E02068810701D52B2002E0D3
:10051000202101EAC000032A099001D0072A05DB47
:1005200003464146204600F07DF90BE12078800625
:1005300001D5E06900E00620B8F1650F814606D0DC
:10054000B8F1660F18D0B8F1670F70D131E0002014
:10055000B9F1110F009001DB112301E009F1010352
:100560000AAA01A90CA8FFF7E2FEDDE90C7000263B
:1005700009F10105834647E001204B4600904FF00A
:1005800000470AAA01A90CA8FFF7D1FEDDE90DB0CA
:100590000C995D46002610B909F101000D18B9EB60
:1005A000050003D4C0F1FF3609F10105A5EB0900F0
:1005B0002BE0B9F1010F01DA4FF001090020B9F188
:1005C000110F0090484601DD112300E003460AAAFE
:1005D00001A90CA8FFF7ABFEDDE90C704D46002623
:1005E0008346207800070AD4AB4500DA5D4601A8AF
:1005F000012D04DD411911F8011C302907D04F45A8
:1006000002DA17F1040F04DA012082460FE06D1EB2
:10061000EEE7002F02DCED1B3E4403E0781CA8420D
:1006200000DD7D1CB81B00F1010A4FF00047207867
:10063000000703D4AA4501DB4FF0FF3A0021B7F1D0
:10064000004F0DF143088DF8431024D002202B23D6
:10065000002F01DA7F422D230A21021EA0F10100A2
:1006600000DC5FB197FBF1FC97FBF1F201FB1C7C16
:1006700017460CF1300C08F801CDEEE7A8F10100A7
:1006800003702188090501D5452100E06521A0F10D
:10069000010800F8011C09980FA9A1EB0807FF1D2C
:1006A00000B10120411901EBEA70A1693844081A30
:1006B000401EA0612078C00602D42046AFF300801F
:1006C000099828B1D4E901219047206A401C206292
:1006D0002078C00622D52046AFF300801EE0002E11
:1006E00004DBB34502DD01A8805D00E03020D4E9E1
:1006F00001219047206A401C2062761CAAF101006B
:100700005FEA000A0AD100F03FF8C0680168405C67
:10071000D4E901219047206A401C2062281EA5F1DF
:100720000105DCDC07E0D4E9012118F8010B904752
:10073000206A401C2062381EA7F10107F3DC204626
:10074000AFF30080032011B041E6000001694A1CAC
:1007500002610878704700B58FB0CDE90131002102
:10076000059105497944CDE9031011466846FFF724
:100770009BFD0FB000BD0000E5FFFFFF0A6802F817
:10078000010B0A60704700000048704768000020B5
:10079000004870474800002030B5B0F10A024FEA27
:1007A000900E71F100034EEA817EB0EB0E0061EB1A
:1007B00091014FEA101E4EEA017E10EB0E0041EB54
:1007C00011114FEA102E4EEA016E10EB0E0041EBB4
:1007D00011214FEA104E4EEA014E10EB0E0041EB94
:1007E0001141401841F100014FEAD00040EA417048
:1007F0004FEAD10110EB80054FEA810444EA90747E
:1008000044EB01046D1944EB0404521BA3414FF067
:10081000000348BF0A3200D530BD401C41F1000141
:1008200030BD00002DE9F0411F4604460326016853
:10083000072A01F4006004DB08B116A505E016A53F
:1008400003E008B115A500E015A521F01000206017
:10085000A069C01EA0610FB1401EA0612046AFF389
:1008600000804FB1D4E9012138469047206A401CEE
:100870002062C01C206206E0206AFAE7D4E9012168
:1008800015F8010B9047761EF8D22046AFF3008092
:10089000BDE8F0814E414E006E616E00494E46004B
:1008A000696E66002DE9F047814616468AB03548E4
:1008B00078440DC88DE80D0032487844801C03ACA4
:1008C0000DC884E80D0041F69B300844372190FBA9
:1008D000F1F290FBF1F5A5F1800501FB12041B3C40
:1008E00002D56442012000E00020DFF898A0804695
:1008F0000027FA44AAF1BE0A0EE0E0070AD0324609
:10090000684607EB470101230AEB810100F046FB33
:100910008DE8070064107F1C002CEED1194F7F4436
:10092000AE3F19E0E80715D007EB04100DF1180AE7
:1009300090E80E008AE80E00C068F04201D19819D4
:1009400008903246012306A903A800F027FB03AB59
:1009500083E807006D10641C002DE3D14FF0010304
:1009600032466946B8F1000F03A802D000F001FB3F
:1009700001E000F013FBC9E90001C9F808200AB042
:10098000BDE8F087003600000048704748000020AE
:100990007546FFF7F9FFAE4605006946534620F05D
:1009A0000700854618B020B5FFF758FCBDE8204089
:1009B0004FF000064FF000074FF000084FF0000B1B
:1009C00021F00701AC46ACE8C009ACE8C009ACE8CE
:1009D000C009ACE8C0098D46704710B50446AFF3B6
:1009E00000802046BDE81040FFF724BC4FF0013CDA
:1009F00050F8042B51F8043B9A4221D1A2EB0C038E
:100A0000934313EACC1317D150F8042B51F8043B4D
:100A10009A4215D1A2EB0C03934313EACC130BD1EA
:100A200050F8042B51F8043B9A4209D1A2EB0C0375
:100A3000934313EACC13DBD04FF00000704700BFA4
:100A4000D01A01BAB1FA81F101F0180122FA01F0CD
:100A5000CB40C1F12001DBB2C0B2C01A2CFA01F3C5
:100A6000D11A914311EAC311E6D170470149182008
:100A7000ABBEFEE72600020070475FEA400C08BFED
:100A800091F0000F4FEA8C234FEAC12243EA515103
:100A90004FEA1C5018BF00F5F0404FEA300018BF75
:100AA00041F000415FEA6C5C00F02980BCF1FF3F3F
:100AB00008BF40F080407047130C06BF12044FF08F
:100AC000100C4FF0000C130E04BF12020CF1080CB6
:100AD000130F04BF12010CF1040C930F04BF92001A
:100AE0000CF1020CD30F04BF52000CF1010C1146A3
:100AF0004FF00002A0F11F00A0EB0C00704711F0B6
:100B0000004F08BF704731F000413FF4D5AF0B0CE8
:100B100006BF09044FF0100C4FF0000C0B0E04BF81
:100B200009020CF1080C0B0F04BF09010CF1040CB5
:100B30008B0F04BF89000CF1020CCB0F04BF4900DE
:100B40000CF1010CCCF12003A0EB0C0022FA03F312
:100B500002FA0CF241EA030100F10100704720F0B3
:100B60007F4C80EA030023F07F47ACEB070303F5DB
:100B70007C5300F0004003F1FF032DE980494FEA68
:100B8000154B09B44FEA144325EA0B4E24EA0348F7
:100B90000FF2042606EB132749083E785FEA32027B
:100BA00003FB0667C7F5000707FB06F64FEA543755
:100BB0004FEAD64606F1020607FB066CCCF1005C54
:100BC0004FEA1C472CEA074C07FB06F40CFB06F522
:100BD00004EB15464FEA961634BF00204FF0004054
:100BE0004FEAD13706FB07FC4FEA1C4C0CFB0BF716
:100BF000D21B03FB0CF761EB07010CFB0EF7B0EB0C
:100C0000074072EB17420CFB08F734BFA2EB074218
:100C1000B2EB074261EB17414FEA0C444FEA9107F0
:100C200006FB07FC4FEA1C4C0CFB0BF7B0EBC74074
:100C300072EB573203FB0CF734BFA2EBC742B2EBA7
:100C4000C74261EB57310CFB0EF7B0EBC70072EBFC
:100C500057720CFB08F734BFA2EBC702B2EBC70216
:100C600061EB5771039F4FEA816141EA921104EBF6
:100C7000CC044FEAD1374FEA826206FB07FC42EA16
:100C800090124FEA80604FEA1C4C0CFB0BF7D21B12
:100C900003FB0CF761EB07010CFB0EF7B0EB074011
:100CA00072EB17420CFB08F734BFA2EB0742B2EB22
:100CB000074261EB17414FEA8C554FEA910704EB6D
:100CC0009C2406FB07FC4FEA1C4C0CFB0BF7B0EB1B
:100CD000C74072EB573203FB0CF734BFA2EBC7429D
:100CE000B2EBC74261EB57310CFB0EF7B0EBC7001C
:100CF00072EB57720CFB08F734BFA2EBC702B2EBE2
:100D0000C70261EB577115EB4C254FEA816141EA4F
:100D100092114FEA82624FEAD13742EA901206FB03
:100D200007FC44F100044FEA80604FEA1C4C0CFBC6
:100D30000BF7D21B03FB0CF761EB07010CFB0EF763
:100D4000B0EB074072EB17420CFB08F734BFA2EB85
:100D50000742B2EB074261EB174115EB1C154FEA56
:100D6000813141EA92414FEA823242EA90424FEAAF
:100D700080304FEA0C7644F1000448EA03434EEA1F
:100D80000B484FF0000EB2EB080C71EB030724BFC9
:100D9000624639464EEB0E0E4FF0000B00185241E2
:100DA00049414BEB0B0BB2EB080C71EB03077BF1EA
:100DB000000B24BF624639464EEB0E0E4FF0000B7F
:100DC0000018524149414BEB0B0BB2EB080C71EB95
:100DD00003077BF1000B24BF624639464EEB0E0E33
:100DE00051EA020718BF46F0010616EB0E7655F1E0
:100DF000000254F1000103D5BDE88901BDE8008877
:100E0000BDE88901BDE80048B619524141EB010136
:100E1000A3F10103704780807F7E7D7C7B7A7978A7
:100E2000777676757473727171706F6E6E6D6C6CAF
:100E30006B6A6A6968686766666564646363626151
:100E40006160605F5F5E5E5D5D5C5C5B5B5A5A59D2
:100E5000595858575756565555555454535352523E
:100E60005251515050504F4F4F4E4E4D4D4D4C4C96
:100E70004C4B4B4B4A4A4A494949484848474747DF
:100E8000474646464545454444444443434343421C
:100E9000424242414141002B9C4630D477002BD046
:100EA0001CB54FEA370703B44FF010004FF01001A4
:100EB000BAF1000F06D0BCF1000FDCBF40F0080013
:100EC00040F008014FF000000FBCBDE810400BF1EE
:100ED000010BBBF1010F08BF5FEA170722BF12F138
:100EE000010211F101014FF0004143F1000300F054
:100EF000004043EA00007047F9D35708D0E746EABC
:100F0000064613F1400F4FEA16461FDD13F1200F7E
:100F1000DFBF16430A46002120335B42BED0C3F137
:100F2000200746EA064602FA07F74FEA164646EA5F
:100F30000706C3F1200722FA03F201FA07F721FAA4
:100F400003F14FF0000342EA0702A7E746EA020670
:100F500046EA06464FEA164646EA0106BCBF46EA9E
:100F60000646360C4FF000034FF000024FF0000130
:100F700094E72DE9804C9A46934670B491E8380086
:100F800007C831EA400C48BF34EA430C03D5FFF7E9
:100F9000E6FDFFF780FFF0BCBDE8008C2DE9804C3A
:100FA0009A46934670B491E8380007C810F0804F15
:100FB00008BF13F0804F03D100F005F8FFF76BFF77
:100FC000F0BCBDE8008C20F07F4780EA030023F0EE
:100FD0007F4C07EB0C03A3F57C5300F00040A3F11A
:100FE000FE0392F0000F00F0B38095F0000F00F0C8
:100FF00077802DE901494FEA11404FEA144621EA72
:10100000004800FB06FC24EA064708FB06F607FB3F
:1010100008F800FB07F718EB06484CEB164C4FEAB4
:10102000124B18EB07484FEA15464CEB174022EAE3
:101030000B4E0BFB06FC25EA06470EFB06F607FBEC
:101040000EFE0BFB07F71EEB064E4CEB164C4FF05B
:1010500000061EEB074E4CEB174B18EB0B0840F14C
:10106000000018EB0E0B58EB000840F100008F1A3F
:101070004FF000013CBFC943661B14BFB5EB040C25
:1010800000213CBFC943F61B4FEA17444EEA8E0EBF
:1010900027EA04454FEA1C4704FB07622CEA074C89
:1010A00005FB07F70CFB05F604FB0CFC16EB0746EB
:1010B00042EB174216EB0C4642EB1C421BEB0606BA
:1010C00058EB0202414146EA9E0601D5BDE801897E
:1010D000B619524141EB0101A3F10103BDE80189B9
:1010E0004FEA14454FEA114724EA054621EA074C26
:1010F00005FB07F406FB07F70CFB06F105FB0CFCF0
:1011000011EB074144EB17444FEA124711EB0C4136
:1011100044EB1C4422EA074C05FB07F206FB07F7E9
:101120000CFB06F605FB0CFC16EB074642EB1742E0
:1011300016EB0C4642EB1C456A1854F1000148BFFF
:101140007047B619524141EB0101A3F10103704709
:1011500095F0000F37D04FEA11424FEA144721EAC9
:10116000024624EA074C02FB07F106FB07F70CFBDB
:1011700006F402FB0CFC14EB074441EB17414FEA69
:10118000154714EB0C4441EB1C4125EA074C02FBCC
:1011900007F506FB07F70CFB06F602FB0CFC16EB4B
:1011A000074645EB174516EB0C4645EB1C4212195A
:1011B00051F1000148BF7047B619524141EB01019E
:1011C000A3F1010370474FEA14454FEA114724EA9F
:1011D000054621EA074C05FB07F106FB07F70CFB68
:1011E00006F24FF0000605FB0CFC12EB074241EB48
:1011F000174112EB0C4251EB1C4148BF704792184B
:1012000041EB0101A3F10103704710B58EB0044614
:101210004FF4807000F0D8F90121080700F0ECF9D4
:101220000121204600F034F9022000F043F90020AB
:1012300002900390022004900020019002208DF87B
:10124000140001A9204600F041F80121204600F0D9
:1012500031F800BF0121204600F06EF80028F9D0D7
:1012600000200C9006900A904FF4507008900020D7
:10127000099001208DF8340000200B90079006A9FA
:10128000204600F063F80021204600F008F804230F
:1012900001221146204600F079F80EB010BD21B1B0
:1012A000C26842F48042C26003E0C26822F4804215
:1012B000C260704721B1826842F00102826003E09F
:1012C000826842F0020282607047000010B500227E
:1012D000B0F1A04F02D0124B984204D1114B1A68C2
:1012E000114B1A4003E0114B1A680F4B1A40D1E919
:1012F000003423438C682343CC6843EA44330C7C9A
:1013000043EA04231A43B0F1A04F02D0044B9842A1
:1013100002D1044B1A6001E0044B1A6010BD0000BA
:101320000001005008030050E010FCFF08070050C7
:101330000146086C80B270470246002013680B40DB
:101340000BB1012000E000207047000010B50246FC
:101350000020D0680C4B1840D1E9003423438C683E
:101360002343CC6823430C6923434C6923438C6992
:1013700023431843D060106B20F00F000B7F5B1EDF
:101380001843106310BD000007C0FFFDF0B50C4608
:101390001D4600BF00BF052A0FDA016B02EB4206B3
:1013A00077001F2606FA07F3994302EB4206760000
:1013B00004FA06F3194301633CE00A2A11DA416B8F
:1013C000561F06EB460677001F2606FA07F39943D9
:1013D000561F06EB4606760004FA06F319434163EE
:1013E00028E00F2A13DA816BA2F10A0606EB460603
:1013F00077001F2606FA07F39943A2F10A0606EBC7
:101400004606760004FA06F31943816312E0C16BC5
:10141000A2F10F0606EB460677001F2606FA07F331
:101420009943A2F10F0606EB4606760004FA06F38E
:101430001943C163092C14DD8169A4F10A0606EB86
:101440004607072606FA07F386699E438661866982
:10145000A4F10A0707EB470705FA07F73E43866141
:1014600010E04169661E06EB4607382606FA07F3C8
:1014700046699E434661466904EB440705FA07F74F
:101480003E434661F0BD816841F0040181607047D0
:10149000826822F04052826021B1826842F080521C
:1014A000826003E0826842F000528260704700BFB1
:1014B000FEE770470349086000BF02490968002938
:1014C000FBD170474400002000B5024602E06420D2
:1014D000FFF7F0FF101EA2F10102F8D100BDF0B538
:1014E0000A46002100240025002300BF3FE001261A
:1014F00006FA01F4166806EA0405A54236D1167903
:10150000012E02D01679022E18D186684FEA410CBE
:10151000032707FA0CF7BE43866056794F00BE409A
:1015200087683E438660868801278F40BE43868059
:10153000878896798E40B6B23743878006684FEA2F
:10154000410C032707FA0CF7BE43066016794F00DB
:10155000BE4007683E430660C3684F000326BE4096
:10156000B343D6794F00BE403343C360491C1029B2
:10157000BDD3F0BDF0B5002300244D07ED0E02FAF7
:1015800005F3CE1000F1200555F826504E07F70E52
:101590000F26BE40B543CF1000F1200646F8275075
:1015A000CE1000F1200555F8265045EA0304CE1070
:1015B00000F1200545F82640F0BD00BFFEE700BF62
:1015C000FEE77047704700000021010F31B1094A62
:1015D000D26A22F47852074BDA6205E0054AD26AF1
:1015E00022F4F872034BDA62024AD26A0243014BD8
:1015F000DA6270470010024029B1064A526902437C
:10160000044B5A6104E0034A52698243014B5A6118
:10161000704700000010024029B1064AD269024317
:10162000044BDA6104E0034AD2698243014BDA6178
:1016300070470000001002402DE9F0430022002610
:10164000002794460025002100230024DFF83C8574
:10165000D8F8048008F00C0222B1042A07D0082A26
:1016600030D109E0DFF82885C0F800802FE0DFF8EE
:101670002085C0F800802AE0DFF81085D8F80480C3
:1016800008F47016DFF80485D8F8048008F4803771
:101690004FF0020808EB964627B9DFF8F88406FBFE
:1016A00008F10DE0DFF8E484D8F82C8008F00F088A
:1016B00008F1010CDFF8D884B8FBFCF808FB06F150
:1016C000016004E0DFF8C884C0F8008000BF00BFFC
:1016D000DFF8B884D8F8048008F0F0021209DFF8C7
:1016E000B88418F80240D0F8008028FA04F8C0F84E
:1016F0000480DFF89884D8F8048008F4E062120AC5
:10170000DFF8948418F80250D0F8048028FA05F81D
:10171000C0F80880DFF87484D8F8048008F46052B8
:10172000D20ADFF8748418F80230D0F8048028FA5E
:1017300003F8C0F80C80DFF85484D8F82C8008F443
:10174000F872120902F00F08DFF8509439F81850B7
:1017500002F01008B8F1000F05D025B1B1FBF5F883
:10176000C0F8108003E0D0F80080C0F81080DFF8E7
:101770001C84D8F82C8008F47852520A02F00F0822
:10178000DFF8189439F8185002F01008B8F1000F7B
:1017900005D025B1B1FBF5F8C0F8148003E0D0F80E
:1017A0000080C0F81480DFF8E483D8F8308008F0B7
:1017B0001008B8F1100F04D0DFF8D483C0F81880F7
:1017C00003E0D0F80080C0F81880DFF8C083D8F8B4
:1017D000308008F02008B8F1200F04D0DFF8B08383
:1017E000C0F81C8003E0D0F80080C0F81C80DFF84F
:1017F0009C83D8F8308008F04008B8F1400F04D03E
:10180000DFF88C83C0F8208003E0D0F80080C0F8B7
:101810002080DFF87883D8F8308008F48078B8F535
:10182000807F0AD1D0F80080884506D1A34204D138
:101830004FEA4108C0F8248003E0D0F80C80C0F8DB
:101840002480DFF84883D8F8308008F48058B8F551
:10185000805F0AD1D0F80080884506D1A34204D128
:101860004FEA4108C0F8288003E0D0F80C80C0F8A7
:101870002880DFF81883D8F8308008F40078B8F5AD
:10188000007F0AD1D0F80080884506D1A34204D158
:101890004FEA4108C0F82C8003E0D0F80C80C0F873
:1018A0002C80DFF8E882D8F8308008F48068B8F53A
:1018B000806F0AD1D0F80080884506D1A34204D1B8
:1018C0004FEA4108C0F84C8003E0D0F80C80C0F823
:1018D0004C80DFF8B882D8F8308008F40068B8F59A
:1018E000006F0AD1D0F80080884506D1A34204D108
:1018F0004FEA4108C0F8508003E0D0F80C80C0F8EF
:101900005080DFF88882D8F8308008F40058B8F5A5
:10191000005F0AD1D0F80080884506D1A34204D1E7
:101920004FEA4108C0F8548003E0D0F80C80C0F8BA
:101930005080DFF85882D8F8308008F40048B8F5B5
:10194000004F0AD1D0F80080884506D1A34204D1C7
:101950004FEA4108C0F8588003E0D0F80C80C0F886
:101960005880DFF82882D8F8308008F00308B8F1F2
:10197000000F04D1D0F80880C0F8388028E0DFF8E4
:101980000C82D8F8308008F00308B8F1010F04D1B8
:10199000D0F80080C0F838801AE0DFF8F081D8F87D
:1019A000308008F00308B8F1020F04D14FF400486A
:1019B000C0F838800CE0DFF8D481D8F8308008F027
:1019C0000308B8F1030F03D1DFF8C481C0F83880F1
:1019D000DFF8B881D8F8308008F44038B8F1000F4B
:1019E00004D1D0F80880C0F83C8028E0DFF89C8162
:1019F000D8F8308008F44038B8F5803F04D1D0F8EA
:101A00000080C0F83C801AE0DFF88081D8F8308090
:101A100008F44038B8F5003F04D14FF40048C0F84E
:101A20003C800CE0DFF86481D8F8308008F440385E
:101A3000B8F5403F03D1DFF85881C0F83C80DFF8AB
:101A40004C81D8F8308008F44028B8F1000F04D158
:101A5000D0F80880C0F8408028E0DFF83081D8F85E
:101A6000308008F44028B8F5802F04D1D0F80080E9
:101A7000C0F840801AE0DFF81481D8F8308008F40C
:101A80004028B8F5002F04D14FF40048C0F840803A
:101A90000CE0DFF8F880D8F8308008F44028B8F57A
:101AA000402F03D1DFF8E880C0F84080DFF8DC8009
:101AB000D8F8308008F44018B8F1000F04D1D0F8FD
:101AC0000880C0F8448028E0DFF8C080D8F8308073
:101AD00008F44018B8F5801F04D1D0F80080C0F891
:101AE00044801AE0DFF8A480D8F8308008F4401869
:101AF000B8F5001F04D14FF40048C0F844800CE052
:101B0000DFF88880D8F8308008F44018B8F5401F16
:101B100003D1DFF87C80C0F84480DFF87080D8F80B
:101B2000308008F44008B8F1000F04D1D0F80880E4
:101B3000C0F8488028E0DFF85480D8F8308008F4F6
:101B40004008B8F5800F04D1D0F80080C0F8488074
:101B50001AE0DFF83880D8F8308008F44008B8F58B
:101B6000000F04D14FF40048C0F848800CE0DFF8C3
:101B70001C80D8F8308008F44008B8F5400F03D135
:101B8000DFF80C80C0F84880BDE8F0830010024008
:101B900000127A0000093D00000000201000002023
:101BA000704700000CB50020019000902C480068A0
:101BB00040F480302A49086000BF2948006800F4DA
:101BC000003000900198401C0190009818B90198CD
:101BD000B0F5A04FF1D12248006800F4003010B1F8
:101BE0000120009001E0002000900098012836D1EB
:101BF00012201C4908601A48406819494860084684
:101C0000406848600846406840F480604860084684
:101C1000406820F47C1048600846406840F4E810B2
:101C200048600846006840F08070086000BF0C48BB
:101C3000006800F000700028F9D00948406820F0E2
:101C40000300074948600846406840F002004860C9
:101C500000BF0348406800F00C000828F9D10CBD13
:101C600000100240002002400448006820B10348F0
:101C70000068401E014908607047000044000020D1
:101C800070B500F02FF813480068134AB0FBF2F16A
:101C9000481EB0F1807F00D31BE0481E4FF0E022C9
:101CA000506150170F22002807DA13071D0E0B4B47
:101CB00000F00F04241F1D5503E013071C0E084BF2
:101CC0001C5400BF00204FF0E022906107201061FB
:101CD00000BF70BD30000020A086010018ED00E0BC
:101CE00000E400E030B50021002000220023204C59
:101CF000646804F00C0121B1042906D0082925D11B
:101D000007E01C4C1C4D2C6024E01A4C1A4D2C6032
:101D100020E0174C646804F47010154C646804F4F7
:101D20008032022404EB904022B9144C4443124DFB
:101D30002C600AE00E4CE46A04F00F04631C0D4CA6
:101D4000B4FBF3F444430C4D2C6003E0094C0A4D02
:101D50002C6000BF00BF064C6468C4F30314084D38
:101D6000295D054C2468CC40034D2C6030BD00003B
:101D70000010024000127A003000002000093D00EF
:101D80003400002010B51B48006840F47000194969
:101D900008601948006840F00100174908600846CB
:101DA00040681649084014494860084600681449CC
:101DB0000840114908600846006820F48020086047
:101DC0000846406820F4FE0048600846C06A20F0DB
:101DD0000F00C8620846006B0A49084006490863BC
:101DE00000208860FFF7DEFE4FF000600149803977
:101DF000086010BD88ED00E0001002400CC07FF8C4
:101E0000FFFFF6FECCFC00FF00B589B001214804BD
:101E1000FFF702FC01214804FFF7EEFB04200790C6
:101E200002208DF8200000208DF8220007A94FF035
:101E30009040FFF754FB0820079002208DF8200007
:101E400007A94FF09040FFF74AFB072202214FF00D
:101E50009040FFF78FFB072203214FF09040FFF7E0
:101E600089FB4FF4165001900020029003900490DB
:101E700006900C20059001A9044800F031F80121DA
:101E8000024800F019F809B000BD0000004400400D
:101E900070B505460C460BE02178284600F096F810
:101EA00000BF8021284600F012F80028F9D0641CF9
:101EB00020780028F0D170BD21B1026842F0010203
:101EC000026003E0026822F00102026070470246ED
:101ED0000020D3690B400BB1012000E000207047C7
:101EE0002DE9F04198B004460D460027B84600267B
:101EF000206820F001002060666826F44056A8683B
:101F000006436660266841F20C608643E9686868AB
:101F100008432969084306432660A66826F44076EC
:101F200068690643A66001A8FFF786FB2348844240
:101F300002D1DDF83C8013E02148844202D1DDF873
:101F400040800DE01F48844202D1DDF8448007E064
:101F50001D48844202D1DDF8488001E0DDF84C8064
:101F6000206800F4004060B14FEA48002968B0FBE7
:101F7000F1F74FEA48002968B0FBF1F201FB1206C5
:101F800007E02868B8FBF0F72868B8FBF0F100FB21
:101F900011862868B6EB500F00D37F1C206800F430
:101FA000004038B1C7F342064FF6F07107EA01006E
:101FB00040EA0607A78118B0BDE8F081003801406B
:101FC0000044004000480040004C0040C1F30802BB
:101FD0000285704700BFFEE703B4019841000098F6
:101FE00050EAC12018BF04204A0D18BF40F001007C
:101FF00040F2FF72B2EB515F08BF40F002000128CF
:1020000008BF052002B070472DE9F04D2DED040BFF
:102010002DED0E8B96B0DDE92550279CDDF890A0C4
:1020200025F0004624F00048BAF1000F14BF01214A
:10203000002101EB4502FC4953184A1093422AD370
:10204000002814BF0123002303EB44030B44F7498A
:102050008B4220D358EA00019FEDF59B76D0DFF844
:10206000D8B35D4503D1BAF1000F05D188E0BAF1CC
:10207000000F08BF002100D0012101EB450111F53F
:10208000001F08D8002814BF0121002101EB4401E2
:1020900011F5001F0BD99DED261B9DED240B16B0ED
:1020A000BDEC0E8B04B0BDE8F04D00F069BE00271A
:1020B000002DBCBFE149884521DAE1498845A8BF28
:1020C00002271CDAC3451ADCDE4901EB285114292A
:1020D00008DDC1F1340220FA02F101FA02F2824273
:1020E0000DD108E058B9C1F1140228FA02F101FA41
:1020F00002F2424503D101F00101C1F1020756EAA3
:102100000A0124D1002C22DA002D18BF022F01D0A1
:10211000012F0AD00220FEF703F916B0BDEC0E8B9A
:1021200004B0BDE8F04D00F013BE0220FEF7F8F851
:1021300000F00EFE51EC100B00F090FF41EC100B84
:1021400016B0BDEC0E8B04B0BDE8F08D18E09FED2D
:10215000BEAB9FEDBF8B002871D1B848804522D11E
:1021600005F1804010F5801008BFBAF1000F07D0CC
:10217000B3450ADC002CA8BF9DED260BE0DA0DE08C
:10218000B0EE490AF0EE690ADAE7002C06DA9DEDB6
:10219000260B51EC100B00F061FF6FE0AE48784465
:1021A00090ED000BCCE7D8454DD1002C48DA2EB18C
:1021B00086423AD1BAF1000F42D126E0BAF1000FBF
:1021C00013D00220FEF7ACF800F0F6FD8DED020B07
:1021D0009DED240B8DED000B10EE900A039961F339
:1021E0001E0003909DED020BAAE78DED02AB9DED65
:1021F000240B1AEE901A10EE900A8DED000B61F38D
:102200001E0003909DED020B9AE78DED028B9DED74
:10221000240B18EE901A10EE900A8DED000B61F36E
:102220001E0003909DED020B8AE709DA9DED240B59
:1022300051EC190B53EC102B01F00AF81EE020E0D2
:102240009DED240B7CE786421BDAB4F1804F0DD064
:10225000A4F10050B0F1FF5013D1002D11DB9DED22
:10226000240B51EC100B00F0ABFE07E09DED240BAE
:1022700053EC102B51EC100B00F0C2BC41EC100BD6
:102280005EE79DED240B51EC100B00F0B5FDBAF1AB
:10229000000FCDE90E0142D19FED710B46B3A6F1BF
:1022A000E040B0F17F600CD05E4538D1002D00DAFF
:1022B000A7B3022F0CBF01204FF0FF3001F020F92F
:1022C000DCE7002D01DD002C0DDA002D01DD002CF6
:1022D0001FDB002D16DA002C14DB012F08BF9FED49
:1022E000620B3FF42DAFB0EE4A0AF0EE6A0A27E720
:1022F000022F18BF002D0CD0012F0AD1002DFFF6A0
:102300001FAF06E0002DB8BF002C08DA012F3FF404
:1023100017AFB0EE480AF0EE680A11E71BE00120A3
:1023200000EBE57050EA070115D0791EB0EE498A3E
:10233000F0EE698A084308BF9FED4D8B4E4800259B
:10234000804570DD4D494E48884514DDB0420DDBB7
:10235000002C19DB2FE00120FDF7E2FF16B0BDECE9
:102360000E8B04B0BDE8F04D00F016BDB34502DCA5
:10237000002C09DC1FE0864202DA002C1BDA03E0A5
:102380005E452BDD002C16DD0220FDF7C9FF00F0B5
:1023900013FD8DED020B53EC1A2B51EC180B01F0D1
:1023A00015F9CDE900010399019861F31E0003902E
:1023B0009DED020BC4E60220FDF7B2FF00F00CFD1C
:1023C00010EE901A18EE900A8DED020B8DED008B39
:1023D00061F31E0003909DED020BB1E69DED0E0B27
:1023E00053EC192B51EC100B01F0FCFA9FED260B6E
:1023F000CDE9080153EC102B9DED080B51EC100BAF
:1024000001F0E4F89FED221B53EC112B01F012FABE
:102410009DED081B53EC112B01F0D8F89FED1E1B0E
:1024200053EC112B3CE08CE0FFFF1F00FFFF0F007F
:10243000000000000000F03F0000F03F0000F07FCF
:102440000000404301FCFFFF000000000000F07F9F
:1024500000000000000000008E1C000000000000D2
:102460000000000000000080000000000000F0FFFD
:10247000000000000000F0BF0000E0410000F04359
:10248000FFFFEF3F00000000000000000000D03F11
:10249000555555555555D53F000000000000E03F0B
:1024A00001F0C8F99DED080B41EC1A0B53EC102B11
:1024B00051EC100B01F08AF853EC1A2B01F086F85E
:1024C00041EC1A0B9FEDFE0B53EC102B9DED080B0E
:1024D00051EC100B01F07AF841EC1B0B9FEDFA0B5D
:1024E00051EC1A0B53EC102B01F070F841EC1A0B65
:1024F0009FEDF70B53EC102B9DED080B51EC100BDF
:1025000001F064F853EC1A2B01F06CFA41EC1A0B51
:1025100051EC1B0B53EC1A2B00F0DEFD0690CDE9BD
:1025200006519DED060B53EC1B2B51EC100B01F0EB
:1025300059FA53EC1A2B01F07DF941EC100B00F025
:10254000A1B90020B6F5801F0EDA9FEDE30B53EC26
:10255000102B9DED0E0B51EC100B01F037F8CDE96F
:102560000E016FF034000E4600EB2650A0F2FF374C
:10257000C6F31300DA4940F07F6646F040568842C1
:10258000D8BF002408DDD7498142C8BF012403DC3D
:102590000024A6F580167F1CD348784400EBC400C5
:1025A0000F9690ED00CB9DED0E0B53EC1C2B51ECD8
:1025B000100B01F017FA9DED0E0B41EC1B0B53ECC9
:1025C0001C2B51EC100B00F087FD41EC100B51EC73
:1025D000190B53EC102B00F03BFE41EC1D0B51ECA2
:1025E0001B0B53EC1D2B00F0F1FF41EC1A0BBF4805
:1025F0008DED10AB7844109590ED000B4FF000502E
:1026000040EA660000EB84408DED080B00F50020E9
:1026100009909DED080B53EC1C2B51EC100B01F0B5
:10262000E1F99DED0E1B53EC112B01F003F941EC88
:10263000100B53EC102B9DED100B51EC100B00F018
:10264000C5FF9DED080B41EC1C0B53EC102B9DEDD1
:10265000100B51EC100B00F0B9FF53EC1B2B01F0E9
:10266000E9F853EC1C2B01F0BDF953EC1D2B00F0E5
:10267000ADFF41EC1C0B53EC1A2B51EC1A0B00F084
:10268000A5FF41EC1B0B9A480621B0EE4B0AF0EE79
:102690006B0A784400F0E0FAB0EE401AF0EE601AEF
:1026A000B0EE41DAF0EE61DA53EC1B2B51EC1B0B70
:1026B00000F08CFF53EC1D2B00F088FF9DED100BFC
:1026C00041EC1B0B53EC1A2B51EC100B00F004FDEA
:1026D00053EC1C2B00F07AFF53EC1B2B00F0FCFC9E
:1026E0009DED100B41EC1B0B53EC102B51EC100B20
:1026F00000F06CFF41EC1D0B9FED7FEB53EC1E2BAC
:1027000000F0EAFC53EC1B2B00F0E6FC0890CDE94E
:1027100008519DED080B53EC1E2B51EC100B01F0F2
:1027200061F953EC1D2B01F05DF953EC1B2B01F00B
:1027300081F89DED080B41EC1D0B53EC102B9DED2A
:10274000100B51EC100B00F041FF41EC1B0B53EC54
:102750001A2B51EC1D0B00F039FF9DED080B41ECDD
:102760001A0B53EC102B51EC1C0B00F02FFF53EC09
:102770001A2B00F0B1FC41EC1A0B51EC1B0B53EC83
:102780001A2B00F0A9FC0C90CDE90C519DED0C0B1F
:1027900053EC1B2B51EC100B01F024F953EC1A2BCA
:1027A00001F048F841EC1B0B9FED550B53EC102B3F
:1027B0009DED0C0B51EC100B00F008FF41EC1A0BD7
:1027C0009FED510B51EC1B0B53EC102B00F0FEFE58
:1027D00041EC1B0B9FED4E0B53EC102B9DED0C0BA6
:1027E00051EC100B00F0F2FE53EC1B2B00F074FCCC
:1027F00041EC100B4848784400EBC40090ED001BFE
:1028000051EC100B53EC112B00F066FC41EC1B0B50
:10281000384600F075FECDE9080153EC1B2B51EC56
:102820001A0B00F059FC41EC100B3C48784400EBCB
:10283000C40090ED00CB51EC100B53EC1C2B00F0BE
:102840004BFC9DED081B53EC112B00F045FC069052
:10285000CDE906519DED080B53EC102B9DED060BB9
:1028600051EC100B01F0BEF853EC1C2B01F0BAF840
:1028700053EC1A2B01F0B6F853EC1B2B00F0DAFFE7
:1028800041EC100B9DED261B53EC102B8DED001B26
:1028900000959DED260B51EC100B00F097FE9DED81
:1028A000000B41EC1A0B53EC102B9DED260B51EC59
:1028B000100B01F097F89DED061B53EC112B2FE048
:1028C000000000604715F73FFE822B654715F73F74
:1028D00044DF5DF80BAE543E0000000000004043B2
:1028E0008E9803007AB60B000A1800003818000012
:1028F0004217000000000000000000000000084037
:10290000000000E009C7EE3FFD033ADC09C7EE3FD7
:10291000F5015B14E02F3EBECE15000088150000C7
:1029200000F054FE53EC1A2B00F0D6FB9DED060B85
:1029300041EC1A0B53EC102B9DED000B51EC100BDE
:1029400000F044FECDE90C019DED0C0B51EC1A0B8F
:1029500053EC102B00F0C0FBCDE902010C46AA4954
:102960008C422FDB611A084318D19DED0C0B53EC00
:10297000102B9DED020B51EC100B01F033F841ECE4
:102980001B0B9FEDA30B51EC1A0B53EC102B00F01B
:10299000A3FB53EC1B2B00F017FF2DD20220FDF7F9
:1029A000BFFC00F009FA10EE901A18EE900A8DEDB7
:1029B000020B8DED008B61F31E0003909DED020B69
:1029C000FFF7BEBB944A24F00041914214D39349CF
:1029D000214408437FF4EFAC9DED0C0B53EC102B1E
:1029E0009DED020B51EC100B00F0FCFF53EC1A2B89
:1029F00000F0EAFE7FF6DFAC24F000408849894A07
:102A0000002601EB205182422BDA481C4FF4801142
:102A100021FA00F02044844AC0F30A517A44A1F21A
:102A2000FF3192ED000B814A8DED080BCA4020EA80
:102A30000202C0F3130040F48010C1F1140120FA27
:102A400001F60992002CB8BF76429DED080B53ECBD
:102A5000102B9DED0C0B51EC100B00F0C3FFCDE9DA
:102A60000C019DED0C0B51EC1A0B53EC102B00F0EC
:102A700033FB9FED6F0B0890CDE9085153EC102B01
:102A80009DED080B51EC100B00F0A0FD41EC1B0B71
:102A90009FED690B53EC102B9DED080B51EC100BC7
:102AA00000F094FD9DED0C0B41EC1C0B53EC102B36
:102AB0009DED080B51EC100B00F094FF53EC1A2B1A
:102AC00000F0B8FE9FED5E1B53EC112B00F07EFD75
:102AD00053EC1C2B00F000FB41EC1A0B51EC1B0BD0
:102AE00053EC1A2B00F0F8FACDE902019DED020B30
:102AF00053EC1B2B51EC100B00F074FF53EC1A2B12
:102B000000F098FE9DED020B41EC1A0B53EC102BDC
:102B100051EC100B00F05AFDCDE908014A489DED3B
:102B2000080B0521784400F097F89DED081B51EC47
:102B3000100B53EC112B00F049FD9DED021B53ECE3
:102B4000112B00F077FECDE906019DED020B53EC51
:102B50001A2B51EC100B00F039FD53EC1A2B00F03E
:102B6000BBFA9FED3B0B41EC1A0B53EC102B9DED88
:102B7000060B51EC100B00F035FF9DED060B41EC00
:102B80001B0B53EC102B9DED020B51EC100B00F0C6
:102B90001DFD53EC1B2B00F05BFB53EC1A2B00F0DC
:102BA00021FF9DED021B53EC112B00F01BFF53EC9A
:102BB000192B00F03FFECDE9020101EB0650011593
:102BC0000029C8BF039015DC9DED020B324651EC85
:102BD000100B01F0A0F8FFF7FFF9042808BF00F080
:102BE000FBF832469DED020B51EC100B01F093F80F
:102BF000CDE902019DED020B51EC180B53EC102BAB
:102C000000F0E4FCFFF73ABB000090400000000039
:102C1000FE822B654715973C00CC904000346F3FF7
:102C200001FCFFFF0000E03F10140000FFFF0F0059
:102C300000000000432EE63F396CA80C615C20BE0A
:102C4000EF39FAFE422EE63FE012000000000000DD
:102C5000000000000000004070B504462DED028B1E
:102C60004D1E00EBC500B0EE408AF0EE608A90ED9C
:102C7000000B35F0060017D053EC182B51EC100B5D
:102C800000F0A4FC41EC100B6D1E04EBC50090EDB0
:102C9000001B51EC100B53EC112B00F01DFA41EC12
:102CA000100B35F00600E7D1022D36D0042D1CD0D4
:102CB000062D1CBFBDEC028B70BD53EC182B51ECE4
:102CC000100B00F083FC94ED0A1B53EC112B00F069
:102CD00003FA53EC182B00F079FC94ED081B53EC2D
:102CE000112B00F0F9F941EC100B53EC182B51ECBF
:102CF000100B00F06BFC94ED061B53EC112B00F055
:102D0000EBF953EC182B00F061FC94ED040B53EC41
:102D1000102B00F0E1F941EC100B53EC182B51ECA7
:102D2000100B00F053FC94ED021B53EC112B00F040
:102D3000D3F953EC182B00F049FC94ED001B53EC35
:102D4000112B00F0C9F9BDEC028B41EC100B70BDEA
:102D50009FED070B10B553EC102B9FED070B51ECBB
:102D6000100B00F075FA41EC100B10BD00000000D4
:102D70000000000000000000000000000000F03F24
:102D800010B553EC112B51EC100B00F0A5F941ECF0
:102D9000100B10BD000000009FED050B10B553ECAB
:102DA000102B51EC100B00F053FA41EC100B10BD3E
:102DB00000000000000000009FED050B10B553EC73
:102DC000102B51EC100B00F001FC41EC100B10BD6E
:102DD00000000000000000709FED050B10B553ECE3
:102DE000102B51EC100B00F0F1FB41EC100B10BD5F
:102DF000000000000000001082B0CDE9000121F0C9
:102E0000004001909DED000B02B051EC100B70479B
:102E10002DED0E8B9AB0FEF733FF4FF0A040FEF77A
:102E2000F4F9FEF75FFFFEF7EFFFA0E0002613E0E6
:102E30004FF0A040FEF727FB00BF04214FF0A04059
:102E4000FEF77AFA0028F8D04FF0A040FEF770FAAB
:102E50000546781987B2761CC82EE9DB384600F0A3
:102E600066FB41EC1D0B9FED420B53EC102B00F069
:102E7000ADFB41EC1C0B9FED400B53EC102B00F015
:102E8000E7F941EC1B0B9FED3E0B53EC102B00F0D0
:102E9000D1FC41EC1A0B00F0EDF808EE100A9FEDA2
:102EA0003A0AC8EE008A18EE900A00F085FE41EC5E
:102EB0001B0B284600F03BFB41EC1E0B9FED2C0B3F
:102EC00053EC102B00F082FB41EC1D0B9FED2A0B05
:102ED00053EC102B00F0BCF941EC1C0B53EC1B2BFA
:102EE00000F0B6F941EC1A0B00F0C4F809EE100A34
:102EF0009FED261B9FED270BFFF786F8B0EE40DA1B
:102F0000F0EE60DA9FED250B53EC102B51EC1D0B0E
:102F100000F05CFB41EC1B0BDFED220A89EE200A7E
:102F2000F7EE000A30EE600A10EE108A404600F01C
:102F300043FE41EC1C0B53EC1B2B00F089F941ECD8
:102F40001A0B00F097F80446204600F035FE41ECDD
:102F50001A0B53EC1A2B14A101A8FDF791F901A942
:102F60001648FEF795FF4FF4FA70FEF7ADFA5DE7ED
:102F70006666666666660A40000000000000B040B3
:102F800000000000000014400000EB4300000000BF
:102F9000000008C0000000000000244087A757CAB6
:102FA00032440F400000C84274656D7065726174F0
:102FB000757265202566200A00000000004400406C
:102FC00000B52DED048B83B041EC190B00F03EFCF5
:102FD00041EC180B18EE100A18EE901A8DED008BCC
:102FE000002818BF0120084320F00040C0F17F6096
:102FF00000F1E040C00F14D019EE101A19EE900A3B
:103000008DED009B002918BF0121084320F00040EE
:10301000C0F17F6000F1E040C00F04BF0120FDF768
:103020007FF951EC180B03B0BDEC048B00BD000020
:1030300010B500290AD00878002807D00548784440
:10304000FDF7D4FC002801D0002010BD02487844D0
:1030500010BD0000AE0E0000A60E000081F0004181
:10306000704780F00040704721F00041704720F029
:103070000040704721F00042A2F16052B2F5801F7B
:1030800001F0004328BFD2F17F6C0BD95FEA001C2E
:1030900043EAC20242EB507018BF704728BF20F0CD
:1030A00001007047B2F5801FBCBF184670474FEA59
:1030B000410C1CF5001F02D2084600F0F3BD70B5AC
:1030C00000F02EFB00000089FFF7F6BF4FF0004034
:1030D000A0F580007047000010B591EA030F48BFCB
:1030E00083F0004300F18684841A71EB030C05D24F
:1030F000121943EB0C03001B61EB0C01DFF824E118
:103100004FEA1154A4EB135C1EEA430F18BF9EEA6A
:10311000445F73D023EA0E03DCF1200E21EA045150
:1031200043F4801332D322FA0CFE10EB0E0023FA84
:103130000CFE41EB0E01CCF1200E03FA0EFE10EB5B
:103140000E0051F10001B1F5801FCCF1200E32D2FA
:1031500001EB045112FA0EF2BDE8104058BF70475F
:10316000401C38BF5FEA420218BF7047002814BFF6
:1031700020F0010041F100014FEA410313F5001F67
:1031800038BF7047A1F1C04100F018BB012A43EBE2
:103190000302ACF1200CDCF11F0E32BF4FF0000E29
:1031A00023FA0CF310EB030041EB0451B4EB115F75
:1031B000D0D0A1EB045101F5801149085FEA30003D
:1031C00001EB04510ED350F1000038BF12FA0EFE8D
:1031D00008D1BDE81040C9E7401C38BF5FEA420291
:1031E000CAD1C3E7BDE810404FEA410313F5001F01
:1031F00038BF7047A1F1C04100F0E0BA9EEA445FD9
:1032000008D011EA5E0FBDE8104004BF01F0004194
:1032100000207047BDE8104070B500F081FA00BF93
:1032200064FBBE3E0000E0FF02494FF0000000F0EA
:1032300040BD00BF0000F87F491058BFC1F14041B8
:103240005B1058BFC3F140438B42EFF300807047DF
:103250002DE9C04130B4DFF8A0C23CEA111418BF18
:103260003CEA131400F0EC8081EA03051CEA111417
:1032700044EAD57418BF1CEA131500F0C780A4EB0C
:1032800005044FF0004545EAC12145EAC32341EA60
:10329000505143EA525304F17F74994204F50034CB
:1032A0004FEAC0204FEAC22208BF904200F09C8043
:1032B0004FEA13650FF24016765D4FEA134506FBA1
:1032C00005F7C7F1807706FB07F74FEAD737A7FB6B
:1032D00003687642C8F58038A7FB06CE38BFA8F150
:1032E000010807FB08E64FF0000EA6FB028CE6FB88
:1032F00003CEDCF1000CCEF1004E38BFAEF1010E72
:10330000A6FB0C584FF000074FF00005E6FB0E87B8
:10331000A1FB08C6A0FB07CE16EB0E0645F1000583
:10332000E1FB076515F1E04E7EBFA4F580345FEA4E
:1033300046066D4116F1800745F100054FEA172753
:103340004FEA066647EA0567A6F1DE46B6F1805FFA
:103350004FEA15251FD9384624F0010C05EBC4713E
:10336000BCF1FE6F01EB0C1102D8F0BCBDE800818E
:1033700024425CBF01F5801E9EEAC47F02D4F0BCEB
:10338000BDE80081244238D4F0BCA1F1C041BDE8C1
:10339000004100F013BA4FEAD22242EA43524FEA08
:1033A000D323A7FB02864FEAD02040EA415007FB17
:1033B00003661EEA0E0F4FEAD12105FB026658BFD5
:1033C000A6EB0056B6EB00564FEA520E4EEAC37E0D
:1033D00018EB0E0E56EB530EBDD518EB02085E41EE
:1033E0007F1C55F10005B6E74FF480154FF000073C
:1033F0004FF000064FF00008ADE7F0BC4FF00000C2
:1034000001F1C04101F00041BDE8008111EA0C1F4B
:103410000CEA131500D00CE013EA0C1F00F0258015
:103420004FF00000F0BC81EA030101F00041BDE86B
:103430000081F0BCBDE8004181EA030100F0BEB9A3
:10344000F0BCBDE8004170B500F06AF9097EFC3EB1
:1034500000F007B881EA03014FF0000001F00041DD
:10346000704781EA030100F0A9B9F0BCBDE8004152
:103470004FF0000021497047FFFDFBF9F7F5F4F22A
:10348000F0EEEDEBE9E8E6E4E3E1E0DEDDDBDAD8FF
:10349000D7D5D4D3D1D0CFCDCCCBCAC8C7C6C5C45D
:1034A000C2C1C0BFBEBDBCBBBAB9B8B7B6B5B4B374
:1034B000B2B1B0AFAEADACABAAA9A8A8A7A6A5A45F
:1034C000A3A3A2A1A09F9F9E9D9C9C9B9A99999823
:1034D0009797969595949393929191908F8F8E8EC6
:1034E0008D8C8C8B8B8A8989888887878685858453
:1034F00084838382828181800000FF070000F87F3F
:1035000010F0004248BF4042B0FA80F310FA03F1D5
:103510000AD0C3F11D0303F580634FEA415002EB6B
:10352000035202EBD12170474FF000007047B0FA10
:1035300080F310FA03F10AD0C3F11D0303F5806391
:103540004FEA41504FEA035202EBD12170474FF04E
:103550000000704751EA030C17D41CF5801F58BFB8
:10356000BCF5801F00F10680994218BF704708BF64
:103570009042704707D711F5801F58BF13F5801F81
:1035800019D499427047894270471CF5801F08D5AD
:10359000BCF5801FF7D58B4218BF704708BF824229
:1035A00070474FF4001C1CEB410F38BF1CEB430F5E
:1035B00001D28B42704770B500F0B2F892244900F6
:1035C0004FF000514FF08053FFF736BEDFF848C18F
:1035D00070B51CEA111E1EBF1CEA13159EEA0C0FE3
:1035E00095EA0C0F00F06F8081EA030423EA4C1384
:1035F0004EEAD47E21EA4C1141F4801143F4801349
:10360000AE44A1FB024CA0FB0365AEF17F7E3619F0
:1036100055EB0C05A1FB034C4CF10003A0FB021C75
:1036200016EB0C06654153F10003094218BF46F042
:10363000010613F4007F0BD14FEA03314FEA053046
:10364000340341EA155140EA16506FF003020AE0D4
:103650004FEAC3214FEAC520F40241EA555140EA3E
:1036600056506FF0020202EB2E4201EB025585EA42
:10367000CE710AD05FEA440C18BF24F0004450F128
:10368000000041F1000120EAD47040F2FE7C624566
:1036900000D270BDA84214BF4FF080444FF04044A8
:1036A000002E08BF0024BEF1806FA8BFA1F1C04169
:1036B000BDE8704080F282804FF0000001F1C0410F
:1036C00001F0004170479EEA0C0F0CEA131518BF79
:1036D00095EA0C0F06D04FF0000081EA030E0EF0C1
:1036E000004170BD00F01CF88900013E00F007B8F1
:1036F00000F009B84FEA430C5FEA5C5C08D081EA4D
:10370000030100F05BB84FEA410C5FEA5C5CF6D164
:103710004FF00000014970470000FF070000F87FEC
:103720000EF1020E2EF0030E5EF8046B364205D445
:10373000012A43EB030515F5001F12D8012841EBC0
:10374000010C1CF5001F0CD80ED14FEAD17C15F5E9
:10375000001F0CEB4C0C0CF1020C08BF4CEBD37CA3
:1037600004E04FF0080C01E04FEAD37C0CEB4C0571
:1037700026FA05F606F00706B6F1040C06D20EEBA3
:10378000860CBDE870404CF0010C6047DFE80CF09F
:10379000090B02024FF000414FF00000A1F500219B
:1037A00070BD19461046012851EB010418BFD4F52D
:1037B000001484BF002001F0004170BD0808A0F58E
:1037C00000114FEA3101704753EA010C17D41CF580
:1037D000801F58BFBCF5801F00F106808B4218BFC8
:1037E000704708BF8242704707D713F5801F58BF44
:1037F00011F5801F19D48B4270479B4270471CF50E
:10380000801F08D5BCF5801FF7D5994218BF7047B7
:1038100008BF904270474FF4001C1CEB430F38BFA9
:103820001CEB410F01D2994270470FB40CBC03BC92
:10383000FFF7C1BE91EA030F10B581F000413FF5DB
:1038400053AC83F0004300F0D5B800002DE9F041FF
:1038500001F5801CBCF5001FC0F2A9804FEA115C85
:1038600021EA0C510CF1FD0C41F480115FEA5C0C73
:103870000CF5C07C01D34000494130A4890241EAE3
:10388000905187028E0E0A0CA45D04FB04F602FB25
:1038900006F6C6F14046A4FB0662F60D46EA42264D
:1038A00006FB06F4A4FB01235242C3F1404338BF98
:1038B0005B1EA6FB02420024E6FB0324D20B42EA75
:1038C0004446A6FB0623A1FB02E2A3FB07E4E3FBBD
:1038D00061426442C2F1404E38BFAEF1010EA6FB18
:1038E00004234FF00002E6FB0E32A2FB0346340035
:1038F000E2FB6264A1FB06E6A4FB07E8E4FB616867
:103900007642C8F1405838BFA8F10108A2FB06E48E
:10391000A3FB08E5E2FB6854A1FB05E6A7FB04E86E
:10392000E1FB648618F1200556F10006A809A8F10C
:103930001B08B10908F03F08B8F10A0F40EA866099
:103940001CD901EB0C51BDE8F08100BFFCF5EEE89D
:10395000E2DDD8D3CFCBC7C3C0BDB9B6B4B1AEAC2E
:10396000A9A7A5A3A19F9D9B9A9896959392908FA6
:103970008D8C8B898887868584838281A0FB0068F3
:1039800000FB01F208EB4208B8EB872807D5341892
:1039900058EB0104D5D5401C51F10001D1E7341A90
:1039A00078EB0104CDD4401E71F10001C9E75FEA54
:1039B0004C0C5FEA9C5C0DD105D34FF0000001F088
:1039C0000041BDE8F081BDE8F04170B5FFF7A8FE09
:1039D0006DDBFFBEBDE8F0414FF0000000497047CD
:1039E0000000F87F10B591EA030F48BF83F0004351
:1039F0003FF57AAB841A71EB030C07D212198CF0E5
:103A0000004C43EB0C03001B61EB0C01DFF8A4E15D
:103A10004FEA1154A4EB135C1EEA430F18BF9EEA51
:103A2000445F00F0B08023EA6E03524221EA045161
:103A3000C3EB6E0338BF5B1EDCF1200E25D322FAE8
:103A40000CFE10EB0E0043FA0CFE41EB0E01CCF124
:103A5000200E03FA0EFE10EB0E0051F10001CCF126
:103A6000200E29D412FA0EF201EB0451BDE81040E9
:103A700058BF7047401C1CBFB2F1004F7047002870
:103A80000CBF491C20F00100704712EB020E43EB03
:103A9000030218BF4FF0010E4EEA4202ACF1200CB7
:103AA000DCF11E0E54D943FA0CFE10EB0E0051F15E
:103AB000FF31CCF11E0ED5D50EF1010E12FA0EFE1D
:103AC000404141EB010101EB445C5FEA5C5C10D9D1
:103AD00010EBDE7001EB045138BFBEF1004FBDE8C2
:103AE000104018BF704700280CBF491C20F001008F
:103AF000704730D24FEAD42C11F5001124F4006441
:103B00001BD0B1FA81F20B3AA41AA41ED2F1200301
:103B1000914030FA03F31943904001EBCC71002C33
:103B200001EB0451BDE81040A8BF704701F1C0414E
:103B30004FF0000001F000417047B0FA80F310FA36
:103B400003F100D110BDE41A173C4805C90AE4E7A7
:103B500001EB045110BD491001EB0451BDE81040C8
:103B60004FEA300002E04FF0000170474A0008BF02
:103B70000042F8D0B2F5001F28BF704701F00041A5
:103B80004FF0000070479EEA445F07D011EA5E0FD5
:103B9000BDE8104004BF002100207047BDE8104080
:103BA00070B5FFF7BDFD00BF40DFF63E83F000417A
:103BB000104670470000E0FF43004FEAD30C4FEA85
:103BC0003C0C43401FBF40070CF1605113F0FE4F07
:103BD00070471CF0006F03D100200CF000417047CB
:103BE0000CF0004343EA507010B540EACC0000F0FE
:103BF0000EF800BF000000924FEA0001FFF7DEBDA3
:103C00004FF000414FF00000A1F5002170470EF188
:103C1000020E2EF0030E5EF8044B244204D44FEA49
:103C20004102B2F17F4F11D84FEA4003B3F17F4F09
:103C30000CD80ED14FEAD07CB2F17F4F0CEB4C0C7C
:103C40000CF1020C08BF4CEBD17C04E04FF0080CE7
:103C500001E04FEAD17C0CEB4C0324FA03F404F0AE
:103C60000704B4F1040C06D20EEB840CBDE810403E
:103C70004CF0010C6047DFE80CF0070802024FF03F
:103C80000040A0F5800010BD0846420018BFD2F1E8
:103C9000807288BF00F0004010BD4FF04070E1EE30
:103CA000100A7047FF2141EAD050C0057047FCF769
:103CB00016BC0CF00F03092B08BF082000F0598038
:103CC0000A2B0BD0082B18BF704708BF1CF0400F01
:103CD0000AD04FF000004FF0000170471CF0400F79
:103CE00018BF4FF0004070471CF0100F08D020F0B4
:103CF000704300F07F4242EAD3014FEA43707047BD
:103D000000F0604021F07F4242EA000201F07F4073
:103D100040EA727070474FF0FF0C4CF4E06C1CEA04
:103D200011531CBF9CEA030C9445C2BFDA4201EB5D
:103D300002517047002B0DD0BCF1000F0FD0002AAC
:103D400001F00041A4BF41F0E04141F07F614FF03C
:103D50000000704701F000414FF00000704750EA4A
:103D600001334FF09B0C18BF4CF0806C7FF45CAAC1
:103D700070471CF4801F11D01CF4E02F03D06FEAB1
:103D8000CC31490070474FF04050EFF3008222F0F1
:103D9000704242EA000282F3008870474FF0000050
:103DA0007047000000000000000000000000F03F2D
:103DB000000000000000F83F0000000000000000CC
:103DC0000000004003B8E23F0000000000000000D7
:103DD00006D0CF43EBFD4C3E033333333333E33F65
:103DE000FFAB6FDBB66DDB3F4D268F515555D53F91
:103DF00001411DA96074D13F65DBC9934A86CD3F5F
:103E0000EF4E454A287ECA3F3E5555555555C53F4C
:103E100093BDBE166CC166BF2CDE25AF6A56113F3E
:103E2000F16BD2C541BDBBBED0A4BE726937663E40
:103E3000000000000000000002400000000000A0A0
:103E40000000000005400000000000C80000000065
:103E50000C4000000000409C0000000019400000E1
:103E60000020BCBE0000000034400000BFC91B8E13
:103E700000000004B5400000504BCFD06607E2CFF1
:103E8000010000006C4100003E8251AADFEEA73421
:103E900001000000D9420000DCB5A0E23A301F97D3
:103EA000FFFFFFFFB4450000FD25A0C8E9A3C14FF7
:103EB000FFFFFFFFFF3F0000000000800000000048
:103EC000FF3F00000000008000000000083F0008E5
:103ED0000000002048000000C4010008503F000816
:103EE0004800002060060000E00100081C000000FF
:103EF00043000000F8FFFFFF0C0000000E00000070
:103F00000F0000002E00000000000000010203046A
:103F1000010203040607080901000200040006006C
:103F200008000A000C001000200040008000000182
:103F3000000000000000000000A24A040000000091
:103F40000000000001020304060708090000000049
:040000050800018965
:00000001FF
